{
  "_format": "hh-sol-artifact-1",
  "contractName": "Vega_Marketing_DAO",
  "sourceName": "contracts/Vega_Marketing_DAO.sol",
  "abi": [
    {
      "inputs": [
        {
          "internalType": "address",
          "name": "tetherAddr",
          "type": "address"
        },
        {
          "internalType": "address",
          "name": "vmdAddr",
          "type": "address"
        }
      ],
      "stateMutability": "nonpayable",
      "type": "constructor"
    },
    {
      "inputs": [
        {
          "internalType": "address",
          "name": "owner",
          "type": "address"
        }
      ],
      "name": "OwnableInvalidOwner",
      "type": "error"
    },
    {
      "inputs": [
        {
          "internalType": "address",
          "name": "account",
          "type": "address"
        }
      ],
      "name": "OwnableUnauthorizedAccount",
      "type": "error"
    },
    {
      "anonymous": false,
      "inputs": [
        {
          "indexed": true,
          "internalType": "address",
          "name": "previousOwner",
          "type": "address"
        },
        {
          "indexed": true,
          "internalType": "address",
          "name": "newOwner",
          "type": "address"
        }
      ],
      "name": "OwnershipTransferred",
      "type": "event"
    },
    {
      "inputs": [
        {
          "internalType": "uint256",
          "name": "amount",
          "type": "uint256"
        }
      ],
      "name": "buyTokens",
      "outputs": [],
      "stateMutability": "nonpayable",
      "type": "function"
    },
    {
      "inputs": [],
      "name": "firstTrancheRate",
      "outputs": [
        {
          "internalType": "uint256",
          "name": "",
          "type": "uint256"
        }
      ],
      "stateMutability": "view",
      "type": "function"
    },
    {
      "inputs": [
        {
          "internalType": "uint256",
          "name": "amount",
          "type": "uint256"
        }
      ],
      "name": "getExchangeRate",
      "outputs": [
        {
          "internalType": "uint256",
          "name": "exchangeRate",
          "type": "uint256"
        }
      ],
      "stateMutability": "view",
      "type": "function"
    },
    {
      "inputs": [],
      "name": "owner",
      "outputs": [
        {
          "internalType": "address",
          "name": "",
          "type": "address"
        }
      ],
      "stateMutability": "view",
      "type": "function"
    },
    {
      "inputs": [],
      "name": "renounceOwnership",
      "outputs": [],
      "stateMutability": "nonpayable",
      "type": "function"
    },
    {
      "inputs": [],
      "name": "secondTrancheLimit",
      "outputs": [
        {
          "internalType": "uint256",
          "name": "",
          "type": "uint256"
        }
      ],
      "stateMutability": "view",
      "type": "function"
    },
    {
      "inputs": [],
      "name": "secondTrancheRate",
      "outputs": [
        {
          "internalType": "uint256",
          "name": "",
          "type": "uint256"
        }
      ],
      "stateMutability": "view",
      "type": "function"
    },
    {
      "inputs": [],
      "name": "secondTrancheThreshold",
      "outputs": [
        {
          "internalType": "uint256",
          "name": "",
          "type": "uint256"
        }
      ],
      "stateMutability": "view",
      "type": "function"
    },
    {
      "inputs": [],
      "name": "tetherAddress",
      "outputs": [
        {
          "internalType": "address",
          "name": "",
          "type": "address"
        }
      ],
      "stateMutability": "view",
      "type": "function"
    },
    {
      "inputs": [],
      "name": "tetherCollected",
      "outputs": [
        {
          "internalType": "uint256",
          "name": "",
          "type": "uint256"
        }
      ],
      "stateMutability": "view",
      "type": "function"
    },
    {
      "inputs": [
        {
          "internalType": "address",
          "name": "newOwner",
          "type": "address"
        }
      ],
      "name": "transferOwnership",
      "outputs": [],
      "stateMutability": "nonpayable",
      "type": "function"
    },
    {
      "inputs": [
        {
          "internalType": "address",
          "name": "newOwner",
          "type": "address"
        }
      ],
      "name": "transferVmdOwnership",
      "outputs": [],
      "stateMutability": "nonpayable",
      "type": "function"
    },
    {
      "inputs": [],
      "name": "vmdAddress",
      "outputs": [
        {
          "internalType": "address",
          "name": "",
          "type": "address"
        }
      ],
      "stateMutability": "view",
      "type": "function"
    },
    {
      "inputs": [
        {
          "internalType": "address",
          "name": "tokenAddress",
          "type": "address"
        }
      ],
      "name": "withdrawErc20",
      "outputs": [],
      "stateMutability": "nonpayable",
      "type": "function"
    }
  ],
  "bytecode": "0x608060405265b5e620f48000600355655af3107a400060045564174876e80060055564746a52880060065560006007553480156200003c57600080fd5b5060405162001344380380620013448339818101604052810190620000629190620002a2565b33600073ffffffffffffffffffffffffffffffffffffffff168173ffffffffffffffffffffffffffffffffffffffff1603620000d85760006040517f1e4fbdf7000000000000000000000000000000000000000000000000000000008152600401620000cf9190620002fa565b60405180910390fd5b620000e9816200017460201b60201c565b5081600260006101000a81548173ffffffffffffffffffffffffffffffffffffffff021916908373ffffffffffffffffffffffffffffffffffffffff16021790555080600160006101000a81548173ffffffffffffffffffffffffffffffffffffffff021916908373ffffffffffffffffffffffffffffffffffffffff160217905550505062000317565b60008060009054906101000a900473ffffffffffffffffffffffffffffffffffffffff169050816000806101000a81548173ffffffffffffffffffffffffffffffffffffffff021916908373ffffffffffffffffffffffffffffffffffffffff1602179055508173ffffffffffffffffffffffffffffffffffffffff168173ffffffffffffffffffffffffffffffffffffffff167f8be0079c531659141344cd1fd0a4f28419497f9722a3daafe3b4186f6b6457e060405160405180910390a35050565b600080fd5b600073ffffffffffffffffffffffffffffffffffffffff82169050919050565b60006200026a826200023d565b9050919050565b6200027c816200025d565b81146200028857600080fd5b50565b6000815190506200029c8162000271565b92915050565b60008060408385031215620002bc57620002bb62000238565b5b6000620002cc858286016200028b565b9250506020620002df858286016200028b565b9150509250929050565b620002f4816200025d565b82525050565b6000602082019050620003116000830184620002e9565b92915050565b61101d80620003276000396000f3fe608060405234801561001057600080fd5b50600436106100ea5760003560e01c806356b14a041161008c5780638da5cb5b116100665780638da5cb5b14610215578063a6b3fc4c14610233578063c7e42b1b14610251578063f2fde38b1461026d576100ea565b806356b14a04146101bd57806362aaf089146101db578063715018a61461020b576100ea565b80633a8105ec116100c85780633a8105ec146101475780633ef11cac146101655780634c4b36ce14610181578063542b865d1461019f576100ea565b80631d59023b146100ef57806333647ff91461010d5780633610724e1461012b575b600080fd5b6100f7610289565b6040516101049190610b9c565b60405180910390f35b61011561028f565b6040516101229190610b9c565b60405180910390f35b61014560048036038101906101409190610be8565b610295565b005b61014f610621565b60405161015c9190610c56565b60405180910390f35b61017f600480360381019061017a9190610c9d565b610647565b005b6101896106df565b6040516101969190610c56565b60405180910390f35b6101a7610705565b6040516101b49190610b9c565b60405180910390f35b6101c561070b565b6040516101d29190610b9c565b60405180910390f35b6101f560048036038101906101f09190610be8565b610711565b6040516102029190610b9c565b60405180910390f35b61021361073f565b005b61021d610753565b60405161022a9190610c56565b60405180910390f35b61023b61077c565b6040516102489190610b9c565b60405180910390f35b61026b60048036038101906102669190610c9d565b610782565b005b61028760048036038101906102829190610c9d565b6109aa565b005b60045481565b60065481565b6005546006546102a59190610cf9565b600754826102b39190610cf9565b11156102f4576040517f08c379a00000000000000000000000000000000000000000000000000000000081526004016102eb90610d8a565b60405180910390fd5b600080600260009054906101000a900473ffffffffffffffffffffffffffffffffffffffff1673ffffffffffffffffffffffffffffffffffffffff1633308560405160240161034593929190610daa565b6040516020818303038152906040527f23b872dd000000000000000000000000000000000000000000000000000000007bffffffffffffffffffffffffffffffffffffffffffffffffffffffff19166020820180517bffffffffffffffffffffffffffffffffffffffffffffffffffffffff83818316178352505050506040516103cf9190610e52565b6000604051808303816000865af19150503d806000811461040c576040519150601f19603f3d011682016040523d82523d6000602084013e610411565b606091505b509150915081610456576040517f08c379a000000000000000000000000000000000000000000000000000000000815260040161044d90610eb5565b60405180910390fd5b6000815111156104b457808060200190518101906104749190610f0d565b6104b3576040517f08c379a00000000000000000000000000000000000000000000000000000000081526004016104aa90610eb5565b60405180910390fd5b5b60006104bf84610711565b9050600084826104cf9190610f3a565b9050600160009054906101000a900473ffffffffffffffffffffffffffffffffffffffff1673ffffffffffffffffffffffffffffffffffffffff166340c10f1930836040518363ffffffff1660e01b815260040161052e929190610f7c565b600060405180830381600087803b15801561054857600080fd5b505af115801561055c573d6000803e3d6000fd5b50505050600160009054906101000a900473ffffffffffffffffffffffffffffffffffffffff1673ffffffffffffffffffffffffffffffffffffffff1663a9059cbb33836040518363ffffffff1660e01b81526004016105bd929190610f7c565b6020604051808303816000875af11580156105dc573d6000803e3d6000fd5b505050506040513d601f19601f820116820180604052508101906106009190610f0d565b5084600760008282546106139190610cf9565b925050819055505050505050565b600260009054906101000a900473ffffffffffffffffffffffffffffffffffffffff1681565b61064f610a30565b600160009054906101000a900473ffffffffffffffffffffffffffffffffffffffff1673ffffffffffffffffffffffffffffffffffffffff1663f2fde38b826040518263ffffffff1660e01b81526004016106aa9190610c56565b600060405180830381600087803b1580156106c457600080fd5b505af11580156106d8573d6000803e3d6000fd5b5050505050565b600160009054906101000a900473ffffffffffffffffffffffffffffffffffffffff1681565b60075481565b60055481565b6000600554826007546107249190610cf9565b111561073457600454905061073a565b60035490505b919050565b610747610a30565b6107516000610ab7565b565b60008060009054906101000a900473ffffffffffffffffffffffffffffffffffffffff16905090565b60035481565b61078a610a30565b60008173ffffffffffffffffffffffffffffffffffffffff166370a08231306040518263ffffffff1660e01b81526004016107c59190610c56565b602060405180830381865afa1580156107e2573d6000803e3d6000fd5b505050506040513d601f19601f820116820180604052508101906108069190610fba565b90506000808373ffffffffffffffffffffffffffffffffffffffff163384604051602401610835929190610f7c565b6040516020818303038152906040527fa9059cbb000000000000000000000000000000000000000000000000000000007bffffffffffffffffffffffffffffffffffffffffffffffffffffffff19166020820180517bffffffffffffffffffffffffffffffffffffffffffffffffffffffff83818316178352505050506040516108bf9190610e52565b6000604051808303816000865af19150503d80600081146108fc576040519150601f19603f3d011682016040523d82523d6000602084013e610901565b606091505b509150915081610946576040517f08c379a000000000000000000000000000000000000000000000000000000000815260040161093d90610eb5565b60405180910390fd5b6000815111156109a457808060200190518101906109649190610f0d565b6109a3576040517f08c379a000000000000000000000000000000000000000000000000000000000815260040161099a90610eb5565b60405180910390fd5b5b50505050565b6109b2610a30565b600073ffffffffffffffffffffffffffffffffffffffff168173ffffffffffffffffffffffffffffffffffffffff1603610a245760006040517f1e4fbdf7000000000000000000000000000000000000000000000000000000008152600401610a1b9190610c56565b60405180910390fd5b610a2d81610ab7565b50565b610a38610b7b565b73ffffffffffffffffffffffffffffffffffffffff16610a56610753565b73ffffffffffffffffffffffffffffffffffffffff1614610ab557610a79610b7b565b6040517f118cdaa7000000000000000000000000000000000000000000000000000000008152600401610aac9190610c56565b60405180910390fd5b565b60008060009054906101000a900473ffffffffffffffffffffffffffffffffffffffff169050816000806101000a81548173ffffffffffffffffffffffffffffffffffffffff021916908373ffffffffffffffffffffffffffffffffffffffff1602179055508173ffffffffffffffffffffffffffffffffffffffff168173ffffffffffffffffffffffffffffffffffffffff167f8be0079c531659141344cd1fd0a4f28419497f9722a3daafe3b4186f6b6457e060405160405180910390a35050565b600033905090565b6000819050919050565b610b9681610b83565b82525050565b6000602082019050610bb16000830184610b8d565b92915050565b600080fd5b610bc581610b83565b8114610bd057600080fd5b50565b600081359050610be281610bbc565b92915050565b600060208284031215610bfe57610bfd610bb7565b5b6000610c0c84828501610bd3565b91505092915050565b600073ffffffffffffffffffffffffffffffffffffffff82169050919050565b6000610c4082610c15565b9050919050565b610c5081610c35565b82525050565b6000602082019050610c6b6000830184610c47565b92915050565b610c7a81610c35565b8114610c8557600080fd5b50565b600081359050610c9781610c71565b92915050565b600060208284031215610cb357610cb2610bb7565b5b6000610cc184828501610c88565b91505092915050565b7f4e487b7100000000000000000000000000000000000000000000000000000000600052601160045260246000fd5b6000610d0482610b83565b9150610d0f83610b83565b9250828201905080821115610d2757610d26610cca565b5b92915050565b600082825260208201905092915050565b7f546f6b656e7320736f6c64206f75740000000000000000000000000000000000600082015250565b6000610d74600f83610d2d565b9150610d7f82610d3e565b602082019050919050565b60006020820190508181036000830152610da381610d67565b9050919050565b6000606082019050610dbf6000830186610c47565b610dcc6020830185610c47565b610dd96040830184610b8d565b949350505050565b600081519050919050565b600081905092915050565b60005b83811015610e15578082015181840152602081019050610dfa565b60008484015250505050565b6000610e2c82610de1565b610e368185610dec565b9350610e46818560208601610df7565b80840191505092915050565b6000610e5e8284610e21565b915081905092915050565b7f746f6b656e207472616e73666572206661696c65640000000000000000000000600082015250565b6000610e9f601583610d2d565b9150610eaa82610e69565b602082019050919050565b60006020820190508181036000830152610ece81610e92565b9050919050565b60008115159050919050565b610eea81610ed5565b8114610ef557600080fd5b50565b600081519050610f0781610ee1565b92915050565b600060208284031215610f2357610f22610bb7565b5b6000610f3184828501610ef8565b91505092915050565b6000610f4582610b83565b9150610f5083610b83565b9250828202610f5e81610b83565b91508282048414831517610f7557610f74610cca565b5b5092915050565b6000604082019050610f916000830185610c47565b610f9e6020830184610b8d565b9392505050565b600081519050610fb481610bbc565b92915050565b600060208284031215610fd057610fcf610bb7565b5b6000610fde84828501610fa5565b9150509291505056fea2646970667358221220f559221669ae48564fba0e4e29061a7f4443fb64ff9b06a8a548c2b93c510a4c64736f6c63430008180033",
  "linkReferences": {},
  "deployedLinkReferences": {}
}